:020000042001D9
:100000009711FF5F9381818D9702000093820229EF
:100010007390523093020000638402007350107C8E
:100020001701FFDF130101FE9700FFDF938080FDC2
:10003000638300008290732540F1814501460D20C5
:100040009700FFDF938000FC63830000829097029B
:1000500000009382C2007390523003230000F5BF6A
:1000600006849711FF5F93816187138141CB8142A1
:10007000130300406385A2001A918502E5BF137146
:1000800001FF93020000631355089712000093824A
:1000900022711703FF5F1303E3F693834182638C9E
:1000A0006200635A730003A5020091022320A3009B
:1000B0001103E34A73FE971200009382626E1703E6
:1000C000FF5F130323F49703FF5F9383A3F3638C12
:1000D0006200635A730003A5020091022320A3006B
:1000E0001103E34A73FE138341829383818B635729
:1000F0007300232003001103E34D73FE11C2029627
:10010000170500001305A51E7522212C692AF32767
:1001100010303707010013078702F98F89CBF327C7
:1001200000300967D98F7390073073503000054550
:1001300097150000938505DC171600001306C6DB33
:100140002920B52AA28082808280411106C2F32232
:1001500040F1130300006385620073005010F5BF87
:08016000392892404101828020
:100168009707FFDF938787E991C7170500001305F5
:1001780085172DAA8280797106D622D400182326E5
:1001880004FE232404FEB7070800232EF4FCB70757
:1001980040002320F4FEB70720002322F4FE5D2050
:1001A80091A8832784FE8A07130704FFBA9783A7B9
:1001B800C7FE85453E8589281305803E652083272F
:1001C80084FE138717002324E4FE8A07130704FF1D
:1001D800BA9783A7C7FE81453E853D202326A4FE06
:1001E8001305803E4120032784FE894763D4E70036
:1001F800232404FE8327C4FECDD781473E85B25011
:100208002254456182800000411106C6B7220110C0
:1002180003A3C20081CD854363847500054531A8D9
:100228003343A30023A66200014501A81345F5FF47
:100238003373A30023A662000145B24041018280C6
:1002480000000000411106C6B722011037036800FC
:1002580023A4620023A0620423A60200B240410145
:1002680082800000411106C6B7C20002938282FF55
:1002780003A3020093031002B383A3029A9303A378
:100288000200E34E73FEB24041018280000000008C
:10029800F322203473231034F3233034D5BF4111B3
:1002A80022C600080100324441018280AA858146A5
:1002B80001460145C9A8411122C406C69707000096
:1002C800938767142A8499C38145252A9707FF5F76
:1002D800938747E088431C5591C382972285EF0096
:1002E800703F4111971700009387074B22C41714DA
:1002F80000001304644A1D8C26C206C60984BE8405
:1003080011E42244B240924441011DBD7D1493176B
:100318002400A6979C438297E5B7411197170000E0
:100328009387C74622C417140000130424461D8C63
:1003380026C24AC006C6098481443E89639784025E
:1003480001359717000093876744171400001304BA
:10035800A4441D8C098481443E89639F8400B24073
:100368002244924402494101828093972400CA970B
:100378009C4385048297D9B793972400CA979C43D6
:1003880085048297D9BF938741829C432A8E99EF2F
:100398001387818223A2E1821705FFDF130505C6B3
:1003A800BA8709C51C4123A8F18ABA87D8437D4872
:1003B8007D556347E804630E0E0203A887086301AE
:1003C800080493182700C29823A0C8000323081024
:1003D80005463316E6003363C3002320681023A0C4
:1003E800D80889466317DE0083264810558E2322D5
:1003F800C810930617000A07D4C3BA978CC70145DB
:100408008280797152CC56CA5AC85EC606D622D4A2
:1004180026D24AD04ECE62C42A8B2E8A938A418233
:10042800854B03A40A0011C8444083298408138912
:10043800F4FF8A04A294635E0900B25022549254D5
:100448000259F249624AD24A424BB24B224C4561A8
:100458008280630E0A00639509007D19F114E1BFDB
:1004680093172900CE9783A70708E39847FF5840BA
:10047800DC407D176318270323222401F9DF032CAE
:1004880044006388090083A6091033972B01F98E6D
:1004980089EE8297584083A70A00E31487F9E30E90
:1004A800F4FA41B723A20400D1BF93162900CE96CF
:1004B8008C4283A64910758F01E75A858297D9BF68
:1004C8002E858297C1BF011122CE00102326A4FEDB
:1004D800B7070080938747073E857244056182808D
:1004E800011122CE00102326A4FE9387418B3E855E
:1004F800724405618280011122CE00102326A4FED9
:1005080081473E85724405618280411122C60008F8
:10051800938741813E85324441018280397106DEEC
:1005280022DC80002326A4FC0325C4FC693F232683
:10053800A4FE0325C4FCC1372324A4FE0325C4FC60
:1005480045372322A4FED1372320A4FE832704FEA7
:100558009C43832584FE032544FE8297232EA4FC16
:100568000325C4FEEF007003AA873E878327C4FDD6
:1005780093F7F7038507B357F7023E85F2506254A5
:1005880021618280011106CE22CC00102326A4FE10
:100598002324B4FE0325C4FE5137AA873E85F240C2
:1005A800624405618280011122CE00102326A4FE38
:1005B800B7070080938707063E85724405618280ED
:1005C800011122CE00102326A4FE9387418B3E857D
:1005D800724405618280011122CE00102326A4FEF8
:1005E80091473E85724405618280411122C6000808
:1005F800938741813E85324441018280397106DE0C
:1006080022DC80002326A4FC0325C4FC693F2326A2
:10061800A4FE0325C4FCC1372324A4FE0325C4FC7F
:1006280045372322A4FED1372320A4FE832704FEC6
:100638009C43832584FE032544FE8297232EA4FC35
:100648000325C4FEEF006075AA873E85F250625408
:1006580021618280011106CE22CC00102326A4FE3F
:100668002324B4FE0325C4FE513FAA873E85F240E9
:10067800624405618280011122CE00102326A4FE67
:10068800B70700809387C7093E8572440561828059
:10069800011122CE00102326A4FEB70700809387FD
:1006A800070B3E85724405618280011122CE00103D
:1006B8002326A4FE9387418B3E8572440561828080
:1006C800011122CE00102326A4FEB1473E857244B4
:1006D80005618280411122C600089387418B3E85BF
:1006E800324441018280411122C60008A1473E855B
:1006F800324441018280411122C60008B727F40024
:10070800938707403E85324441018280411122C6C9
:100718000008B78700103E853244410182804111AC
:1007280022C60008938741813E8532444101828078
:10073800011122CE00102326A4FE2324B4FE832711
:1007480084FE98478327C4FE63E9E700832784FE75
:10075800D8478327C4FE6374F700FD5729A8832769
:1007680084FE98438327C4FE3307F702832784FE59
:10077800DC43B357F7023E8572440561828001115C
:1007880006CE22CC0010853F2326A4FE8327C4FE74
:1007980091C7B70700801385470C31200100F2404C
:1007A800624405618280397106DE22DC80002326DE
:1007B800A4FC8327C4FC3E85E13D2326A4FE253FF7
:1007C8002324A4FE0D372322A4FE89372320A4FE68
:1007D800032704FE832744FEBA97232EF4FC8327BD
:1007E800C4FCDC4389CB8327C4FCD8438327C4FCDF
:1007F8009C473E8502978327C4FD9843C167F98FBC
:1008080091EB8327C4FD9843C177FD177D8F83271C
:10081800C4FD98C38327C4FE91CB8327C4FD9843A6
:10082800B70702005D8F8327C4FD98C38327C4FCE4
:100838009C43D8438327C4FC832584FE3E850297C6
:100848008327C4FCDC4789CB8327C4FCD84783278C
:10085800C4FC9C4B3E8502970100F2506254216112
:1008680082801D7186CEA2CC80102326A4FA03258F
:10087800C4FA393D2326A4FE0325C4FAED3B2324FC
:10088800A4FE0325C4FA85352322A4FE0325C4FA51
:1008980091352320A4FE0325C4FA1D35232EA4FC7C
:1008A8000325C4FA1935232CA4FC953D232AA4FC5E
:1008B800832744FD9C43832544FE032504FE829739
:1008C8002328A4FC832744FD9C438325C4FD0325DA
:1008D80084FD82972326A4FC032704FDC1677D8F2E
:1008E800C1676377F700032584FE4529AA87D9A83D
:1008F800032704FDB70702007D8FB7070200636571
:10090800F7008327C4FE19A0832784FE3E85712142
:100918002324A4FC032704FDB70704007D8FB70731
:1009280004006365F700832784FC69A8832704FD16
:100938009D8B85072322F4FC832704FD93F7073F4B
:100948009183850786072320F4FC032704FD856728
:10095800938707C07D8F9307F03F63E4E700FD5757
:1009680095A0032704FD8567938707C0F98FA9839E
:100978000547B317F700232EF4FA032784FC8327CF
:1009880044FC3347F702832704FC3307F702832725
:10099800C4FBB347F702232CF4FA8327C4FC13F7EC
:1009A80007109307F00F63F5E700832784FB19A866
:1009B800032784FB8327C4FC93F7F703850786077F
:1009C800B357F7023E85F640664425618280397147
:1009D80006DE22DC80002326A4FC2324B4FCFD5779
:1009E8002326F4FEB707008093C7F7FF2324F4FEFD
:1009F800930730042322F4FEA5A0832744FE13970F
:100A08005700B7170120938747F0BA97BE8503258B
:100A1800C4FC393B2320A4FE032704FEFD57630CC6
:100A2800F702032704FE832784FC1D8F9357F741A1
:100A38003D8FB307F740232EF4FC0327C4FD83271B
:100A480084FE635AF700832744FE2326F4FE832797
:100A5800C4FD2324F4FE832744FEFD172322F4FE5D
:100A6800832744FEE3DB07F88327C4FE3E85F25064
:100A7800625421618280011122CE00102326A4FE37
:100A88002324B4FE2322C4FE8327C4FE9C4313F709
:100A980087FF8327C4FE98C38327C4FE9843832710
:100AA80044FE9C4B9D8B5D8F8327C4FE98C3832790
:100AB800C4FE9C4313F7F7C08327C4FE98C383275B
:100AC800C4FE9843832744FEDC4B920793F7073F05
:100AD8005D8F8327C4FE98C38327C4FE9843FD77A0
:100AE8009387F73F7D8F8327C4FE98C38327C4FE6F
:100AF8009843832744FE9C4F9396A7008567938766
:100B080007C0F58F5D8F8327C4FE98C3832744FEF3
:100B1800DC4F63DB0702832784FE9C4313E707103F
:100B2800832784FE98C3832784FE9C4313F707FC1E
:100B3800832784FE98C3832784FE9C4313E717000A
:100B4800832784FE98C32DA8832784FE9C4313F72C
:100B5800F7EF832784FE98C3832784FE9C4313F70B
:100B680007FC832784FE98C3832784FE9843832742
:100B780044FEDC4F93F7F7035D8F832784FE98C309
:100B88008327C4FE9843B707FCFFFD177D8F832793
:100B9800C4FE98C301008327C4FE9C43E3DD07FE1F
:100BA80001007244056182805D7186C6A2C4800816
:100BB800232EA4FA232CB4FA0325C4FBD13C232604
:100BC800A4FE0325C4FB453C2324A4FE0325C4FB43
:100BD800193E2322A4FE0325C4FBDD342320A4FEF2
:100BE8003536232EA4FC0327C4FD832744FEBA9779
:100BF800232CF4FC0327C4FD832704FEBA97232A79
:100C0800F4FC832784FD9843C167F98F91CB832730
:100C180084FD9843C177FD177D8F832784FD98C392
:100C2800832784FD9843B7070200F98F81C783277C
:100C3800C4FE19A0832784FE3E8585222328A4FCB0
:100C4800032704FDBA878607BA9713D7F7410D8B98
:100C5800BA9789873E87832784FB63CBE7020327FC
:100C680004FDBA878A07BA9713D7F7410D8BBA974D
:100C780089873E87832784FB634CF700832784FD9D
:100C88009843B70704005D8F832784FD98C3B1A0FC
:100C9800832584FB032504FD1D3B2326A4FC032791
:100CA800C4FCFD576302F7028327C4FC139757005F
:100CB800B7170120938747F0BA973E86832544FDEE
:100CC800032584FD4D3B11A8832784FD9843B7076E
:100CD80004005D8F832784FD98C3832784FD984390
:100CE800C1675D8F832784FD98C30325C4FB953EA8
:100CF800AA873E85B640264461618280011106CEEE
:100D080022CC0010CD3A2326A4FE8325C4FEB707C3
:100D180000801385470C6D200100F2406244056194
:100D28008280411122C60008B78700103E853244F0
:100D380041018280797106D622D40018232EA4FCA2
:100D4800232CB4FCF93FAA872326F4FE032784FD4D
:100D58008327C4FEBA979C433E85B250225445610E
:100D68008280797106D622D40018232EA4FC232C65
:100D7800B4FC232AC4FC7537AA872326F4FE03276C
:100D880084FD8327C4FEBA973E87832744FD1CC38E
:100D98003E85B250225445618280011106CE22CC94
:100DA80000102326A4FE8327C4FE9C439C430325EE
:100DB800C4FE8297AA873E85F2406244056182801C
:100DC800797106D622D40018232EA4FC232CB4FC57
:100DD8008327C4FDDC4389CB8327C4FDD8438327FD
:100DE800C4FD9C473E8502978327C4FD9C43DC4392
:100DF800832584FD0325C4FD82972326A4FE83272B
:100E0800C4FDDC4789CB8327C4FDD8478327C4FDAD
:100E18009C4B3E8502978327C4FE3E85B2502254E0
:100E280045618280011122CE00102326A4FE010014
:100E3800FDBF011122CE00102326A4FE0327C4FE05
:100E4800B7070080938707066317F700B727F400F2
:100E58009387074025A80327C4FEB7070080938718
:100E680047076317F700B7A74A049387072039A8ED
:100E78000327C4FEB7070080938787086317F70026
:100E8800B757E8019387078011A081473E857244D0
:100E980005618280011106CE22CC00102326A4FE13
:100EA8000325C4FE7937AA873E85F240624405616E
:100EB8008280011106CE22CC00102326A4FE232412
:100EC800B4FE0325C4FEF937AA873E85F240624482
:100ED80005618280011106CE22CC00102326A4FED3
:060EE8000325C4FE813762
:100EF000F80E0120000000006C6962676C6F73736C
:100F0000000000000100000020000000001BB700EE
:100F100000366E01010000001F0000000300000009
:100F20003F000000010000002000000000366E01BC
:100F3000006CDC02030000001F0000000200000043
:100F40003F0000000100000010000000808D5B00E9
:100F5000001BB700000000001F000000030000009D
:100F60003F0000000100000010000000001BB7005F
:100F700000366E01010000001F00000002000000AA
:100F80003F000000010000001000000000366E016C
:100F9000006CDC02030000001F00000002000000E3
:100FA0001F0000000100000008000000808D5B00B1
:100FB000001BB700000000001F000000030000003D
:100FC0001F0000000100000008000000001BB70027
:100FD00000366E01010000001F000000020000004A
:100FE0001F000000010000000800000000366E0134
:100FF000006CDC02030000001F0000000200000083
:101000000F0000000100000004000000808D5B0064
:10101000001BB700000000001F00000003000000DC
:101020000F0000000100000004000000001BB700DA
:1010300000366E01010000001F00000002000000E9
:101040000F000000010000000400000000366E01E7
:10105000006CDC02030000001F0000000200000022
:10106000070000000100000002000000808D5B000E
:10107000001BB700000000001F000000020000007D
:101080000F0000000100000002000000001BB7007C
:1010900000366E01010000001F000000010000008A
:1010A0000F000000010000000200000000366E0189
:1010B000006CDC02030000001F00000001000000C3
:1010C000070000000200000001000000808D5B00AE
:1010D000001BB700000000001F000000010000001E
:1010E000070000000200000001000000001BB70024
:1010F00000366E01010000001F000000010000002A
:1011000003000000020000000100000000366E0134
:10111000006CDC02030000001F0000000300000060
:10112000FFFFFFFF0400000001000000808D5B0056
:10113000001BB700000000001F00000003000000BB
:10114000000000000400000001000000001BB700C8
:1011500000366E01010000001F00000003000000C7
:10116000FFFFFFFF040000000100000000366E01D9
:10117000006CDC02030000001F0000000200000001
:10118000FFFFFFFF0600000001000000808D5B00F4
:10119000AAC2A2000000000023000000010000001D
:1011A000020000000600000001000000AAC2A20028
:1011B000001BB70000000000170000000300000043
:1011C000FFFFFFFF0600000001000000001BB7004A
:1011D0000024F400010000002F00000003000000C4
:1011E000FFFFFFFF06000000010000000024F400E4
:1011F00080A812010100000017000000020000009A
:10120000FFFFFFFF060000000100000080A81201A0
:101210005585450102000000230000000200000087
:10122000FFFFFFFF0800000001000000808D5B0051
:10123000001BB700000000001F00000003000000BA
:10124000FFFFFFFF0800000001000000001BB700C7
:1012500000366E01010000001F00000002000000C7
:10126000FFFFFFFF080000000100000000366E01D4
:10127000006CDC02030000001F0000000100000001
:10128000FFFFFFFF0A00000001000000808D5B00EF
:10129000007C920000000000270000000300000016
:1012A000FFFFFFFF0A00000001000000007C920029
:1012B000001BB70000000000130000000200000047
:1012C000FFFFFFFF0A00000001000000001BB70045
:1012D00000F82401010000002700000002000000C7
:1012E000FFFFFFFF0A0000000100000000F82401DA
:1012F00000366E0101000000130000000100000034
:10130000FFFFFFFF0A0000000100000000366E0131
:1013100000F0490203000000270000000100000067
:10132000FFFFFFFF0C00000001000000808D5B004C
:1013300000127A00000000002F00000003000000EF
:10134000FFFFFFFF0C0000000100000000127A0008
:10135000001BB700000000001700000002000000A2
:10136000FFFFFFFF0C00000001000000001BB700A2
:101370000024F400010000002F0000000200000023
:10138000FFFFFFFF0C000000010000000024F4003C
:1013900000366E010100000017000000010000008F
:1013A000FFFFFFFF0C0000000100000000366E018F
:1013B00080C3C901030000002F00000001000000ED
:1013C000FFFFFFFF0C0000000100000080C3C90107
:1013D0000048E801030000002F00000001000000A9
:1013E000FFFFFFFF0E00000001000000808D5B008A
:1013F000B6A16800000000003700000003000000F4
:10140000FFFFFFFF0E00000001000000B7A1680011
:10141000001BB700000000001B00000002000000DD
:10142000FFFFFFFF0E00000001000000001BB700DF
:101430006D43D100010000003700000002000000F1
:10144000FFFFFFFF0E000000010000006E43D1000F
:1014500000366E01010000001B00000001000000CA
:10146000FFFFFFFF0E0000000100000000366E01CC
:10147000DB86A2010300000037000000010000002D
:10148000FFFFFFFF1000000001000000808D5B00E7
:10149000001BB700000000001F0000000200000059
:1014A000FFFFFFFF1000000001000000001BB7005D
:1014B00000366E01010000001F0000000100000066
:1014C000FFFFFFFF1200000001000000808D5B00A5
:1014D000AAC2A200000000002300000002000000D9
:1014E000FFFFFFFF1200000001000000ABC2A200DE
:1014F000001BB70000000000110000000100000008
:10150000FFFFFFFF1200000001000000001BB700FA
:101510005585450101000000230000000100000086
:10152000FFFFFFFF1400000001000000808D5B0042
:10153000007C920000000000270000000200000074
:10154000FFFFFFFF1400000001000000007C92007C
:10155000001BB700000000001300000001000000A5
:10156000FFFFFFFF1400000001000000001BB70098
:1015700000F8240101000000270000000100000025
:10158000FFFFFFFF1600000001000000808D5B00E0
:10159000E82A8500000000002B0000000200000087
:1015A000FFFFFFFF1600000001000000E92A850090
:1015B000001BB70000000000150000000100000043
:1015C000FFFFFFFF1600000001000000001BB70036
:1015D000D1550A01010000002B00000001000000AD
:1015E000FFFFFFFF1800000001000000808D5B007E
:1015F00000127A00000000002F000000020000002E
:10160000FFFFFFFF180000000100000000127A0039
:10161000001BB700000000001700000001000000E0
:10162000FFFFFFFF1800000001000000001BB700D3
:101630000024F400010000002F0000000100000061
:10164000FFFFFFFF1A00000001000000808D5B001B
:1016500027AE700000000000330000000200000010
:10166000FFFFFFFF1A0000000100000028AE70001D
:10167000001BB7000000000019000000010000007E
:10168000FFFFFFFF1A00000001000000001BB70071
:101690006658E10001000000330000000100000076
:1016A000FFFFFFFF1C00000001000000808D5B00B9
:1016B000B6A1680000000000370000000200000032
:1016C000FFFFFFFF1C00000001000000B7A1680041
:1016D000001BB700000000001B000000010000001C
:1016E000FFFFFFFF1C00000001000000001BB7000F
:1016F0006D43D10001000000370000000100000030
:10170000FFFFFFFF1E00000001000000808D5B0056
:1017100000A86100000000003B0000000200000083
:10172000FFFFFFFF1E0000000100000000A8610095
:10173000001BB700000000001D00000001000000B9
:10174000FFFFFFFF1E00000001000000001BB700AC
:101750000050C300010000003B0000000100000039
:10176000FFFFFFFF2000000001000000808D5B00F4
:10177000001BB700000000001F0000000100000077
:10178000FFFFFFFFAE0701206A080120B00B012018
:0C1790006801012086070120040D0120E3
:10179C00000000000000000000000000000000003D
:1017AC00000000000000000000000000000000002D
:1017BC00000000000000000000000000000000001D
:1017CC00000000000000000000000000000000000D
:1017DC0000000000000000000000000000000000FD
:1017EC0000000000000000000000000000000000ED
:1017FC00F400008000000000000000000000000069
:10180C0000000000F4000080000000000000000058
:10181C000000000000000000F40000800000000048
:10182C00000000000000000000000000DC00008050
:10183C00000000000000000000000000000000009C
:10184C00E400008000000000000000000000000028
:10185C0000000000881701200000000000000000BC
:10186C0000000000000000000000008024050120A2
:10187C008C050120040601205C0601203C0D012092
:0C188C006A0D01209C0E0120BA0E012004
:0400000520010000D6
:00000001FF
